:020000040000FA
:060000003BEF04F01200CA
:020006001200E6
:0800080048EF03F01200D9CF0C
:10001000E6FFE1CFD9FFE652DF6A956AF80E946EEB
:100020001CD8030EDF5C07E251D8DFCFE6FF74D89F
:10003000E552DF2AF6D783D8C9D8F28EF288F08647
:10004000F088F292F090F092F19CF19AF198FFD73B
:10005000E552E552E7CFD9FF1200380E8C6E18D862
:1000600009D8010E8C6E14D805D80C0E8C6E10D8E1
:100070003AEF00F0010ED56E0B0ED76EBC0ED66EA9
:100080005FEF00F0480ED56EFD0ED66E5FEF00F00C
:10009000829082928284F6DF829412008280829221
:1000A0008284F0DF8294120082908282958E829404
:1000B000E9DF828483BEFBD78294959E1200F2947E
:1000C000D58EF2A4FED7F294D59E1200010EE66EF4
:1000D0000ED8E5527C0E8C6EE1DFE6DF010EE66E97
:1000E00006D8E5527C0E8C6ED9DF54EF00F0D9CFE4
:1000F000E6FFE1CFD9FFE652DF6AFE0EDB50DF5CA0
:1001000006E2140E8C6EC4DFCFDFDF2AF6D7E5528D
:10011000E552E7CFD9FF1200D9CFE6FFE1CFD9FFF3
:10012000FE0EDB50010A05E0010A01E004D00CD804
:1001300002D00FD800D0E552E7CFD9FF1200800ED1
:100140008C6EA6DF54EF00F0C00E8C6EA1DF54EF72
:1001500000F0900E8C6E9CDF54EF00F0D00E8C6E91
:1001600097DF54EF00F011D8890EE66E000EE66EB0
:1001700012D9E552E552120008D8910EE66E000E33
:10018000E66E09D9E552E5521200D9CFE6FFE1CF7C
:10019000D9FFE652DF6AE2DF100EDF5C06E2200ED6
:1001A0008C6E7CDF81DFDF2AF7D7D8DFE552E5529E
:1001B000E7CFD9FF1200100E8C6E6ADF75DF300EAC
:1001C000000182258C6E6ADF54EF00F0D9CFE6FF84
:1001D000E1CFD9FF020EE126DF6A010EDB6A030ED2
:1001E000DF5C23E2010EDB6A030EF36E010EDBCF50
:1001F000F4FFF350F45C17E2DF50030DF3CF02F08D
:10020000F4CF03F0E80E0226000E0322010EDB50AD
:100210000F010224E96E000E0320EA6E450EEF6E18
:10022000010EDB2AE1D7DF2ADAD7020EE15C02E217
:10023000E16AE552E16EE552E7CFD9FF1200000115
:10024000872B8451030DF3CF02F0F4CF03F0E80EB7
:100250000226000E032285510F010224E96E000ED2
:100260000320EA6EEF5045086AE100018451020A5A
:1002700009E0030A05E0010A01E006D060DF04D0CE
:1002800063DF02D066DF00D000018551020A0EE074
:10029000030A07E0010A01E00ED0E66A28DFE55212
:1002A0000AD0020EE66E23DFE55205D0040EE66E9C
:1002B0001EDFE55200D00001DD511CE1580E8C6EAE
:1002C000EDDEF2DE00018451030DF3CF02F0F4CF36
:1002D00003F0E80E0226000E032285510F010224CE
:1002E000E96E000E0320EA6E580EEF6E0001010E5B
:1002F000DD6F1AD04F0E8C6ED1DED6DE0001845138
:10030000030DF3CF02F0F4CF03F0E80E0226000E47
:10031000032285510F010224E96E000E0320EA6ECC
:100320004F0EEF6E0001DD6B865103E1010E866F0B
:1003300001D0866B040E875D01E358D80CD025DF11
:10034000A00EE66E000EE66E26D8E552E55292DE6D
:1003500091DE90DE1ADF0001826B806B836B846B11
:10036000856B816B9FEF00F0D9CFE6FFE1CFD9FF1E
:10037000E6DE060EE66EBBDEE552FD0EDBCFE6FFE7
:10038000FE0EDBCFE6FF07D8E552E552D8DEE55298
:10039000E7CFD9FF1200D9CFE6FFE1CFD9FFE65270
:1003A000DF6ADF50E76EFD0EDBCFE9FFFE0EDBCF2D
:1003B000EAFFE750E926000EEA22EF5012E0DF5094
:1003C000E76EFD0EDBCFE9FFFE0EDBCFEAFFE75065
:1003D000E926000EEA22EF508C6E60DE65DEDF2A31
:1003E000E0D7E552E552E7CFD9FF1200D9CFE6FFBB
:1003F000E1CFD9FF050EE126580E0001E85D0FE1BF
:10040000580EE95D0CE1580EEA5D09E1BEDEC10E51
:10041000E66E000EE66EBFDFE552E55228D1580EBB
:10042000EB5D0FE1580EEC5D0CE1580EED5D09E15E
:10043000ACDEC10EE66E000EE66EADDFE552E552B3
:1004400016D1580EEE5D0FE1580EEF5D0CE1580E1F
:10045000F05D09E19ADEC10EE66E000EE66E9BDFEE
:10046000E552E55204D1580EE85D0FE1580EEB5D00
:100470000CE1580EEE5D09E188DEC10EE66E000E5D
:10048000E66E89DFE552E552F2D0580EE95D0FE1E4
:10049000580EEC5D0CE1580EEF5D09E176DEC10E01
:1004A000E66E000EE66E77DFE552E552E0D0580EBC
:1004B000EA5D0FE1580EED5D0CE1580EF05D09E1CB
:1004C00064DEC10EE66E000EE66E65DFE552E552B3
:1004D000CED0580EE85D0FE1580EEC5D0CE1580EE1
:1004E000F05D09E152DEC10EE66E000EE66E53DFEE
:1004F000E552E552BCD0580EEA5D0FE1580EEC5DB6
:100500000CE1580EEE5D09E140DEC10EE66E000E14
:10051000E66E41DFE552E552AAD04F0EE85D0FE1ED
:100520004F0EE95D0CE14F0EEA5D09E12EDECF0EC4
:10053000E66E000EE66E2FDFE552E55298D04F0EC4
:10054000EB5D0FE14F0EEC5D0CE14F0EED5D09E14F
:100550001CDECF0EE66E000EE66E1DDFE552E552A4
:1005600086D04F0EEE5D0FE14F0EEF5D0CE14F0EAA
:10057000F05D09E10ADECF0EE66E000EE66E0BDFDF
:10058000E552E55274D04F0EE85D0FE14F0EEB5D82
:100590000CE14F0EEE5D09E1F8DDCF0EE66E000EC8
:1005A000E66EF9DEE552E55262D04F0EE95D0FE1ED
:1005B0004F0EEC5D0CE14F0EEF5D09E1E6DDCF0E75
:1005C000E66E000EE66EE7DEE552E55250D04F0EC5
:1005D000EA5D0FE14F0EED5D0CE14F0EF05D09E1BC
:1005E000D4DDCF0EE66E000EE66ED5DEE552E552A6
:1005F0003ED04F0EE85D0FE14F0EEC5D0CE14F0E6B
:10060000F05D09E1C2DDCF0EE66E000EE66EC3DEE0
:10061000E552E5522CD04F0EEA5D0FE14F0EEC5D36
:100620000CE14F0EEE5D09E1B0DDCF0EE66E000E7F
:10063000E66EB1DEE552E5521AD00001882B060EB7
:10064000885D15E1D9CFE9FFDACFEAFF440EEE6EFF
:10065000520EEE6E410EEE6E570EEE6EEE6A95DDA8
:10066000D9CFE6FFDACFE6FF96DEE552E552050E7A
:10067000E15C02E2E16AE552E16EE552E7CFD9FFC3
:02068000120066
:0E068200010092080000800000005E000000F1
:10069000DACFE4FFE2CFDAFFE9CFE4FFEACFE4FF0D
:1006A000F6CFE4FFF7CFE4FFF5CFE4FFF3CFE4FFAD
:1006B000F4CFE4FFFACFE4FF00EE00F0020EE8040E
:1006C00003E3EECFE4FFFBD700EE02F0020EE804F6
:1006D00003E3EECFE4FFFBD7E652F0A021D0F09089
:1006E0000001865109E1AF0EE66E000EE66EB4EC35
:1006F00001F0E552E55208D0B80EE66E000EE66E47
:10070000B4EC01F0E552E5520001805105E1010E23
:10071000806FB3EC00F003D0806BBCEC00F028D00D
:10072000F2A213D0F29200018151812BEA6A9C0F50
:10073000E96E000EEA22EFCF82F0DBEC00F0030E50
:100740000001815D01E1816B13D0F0A211D0F09224
:100750000001835107E1010E836F82C084F0826B38
:10076000816B06D082C085F0826B816B1FEC01F03B
:10077000E55200EE03F0020EE80403E3E5CFEDFFDF
:10078000FBD700EE01F0020EE80403E3E5CFEDFF36
:10079000FBD7E5CFFAFFE5CFF4FFE5CFF3FFE5CFD9
:1007A000F5FFE5CFF7FFE5CFF6FFE5CFEAFFE5CFB1
:0807B000E9FFE5CFDAFF1100BB
:0807B800820EF66E060EF76ECC
:1007C000000EF86E00010900F550E36F0900F550C6
:1007D000E46F03E1E36701D03DD00900F550DE6F1F
:1007E0000900F550DF6F0900F550E06F09000900BE
:1007F000F550E96E0900F550EA6E0900090009009C
:10080000F550E16F0900F550E26F09000900F6CFDD
:10081000E5F0F7CFE6F0F8CFE7F0DEC0F6FFDFC097
:10082000F7FFE0C0F8FF0001E15302E1E25307E007
:100830000900F550EE6EE107F8E2E207F9D7E5C0EE
:10084000F6FFE6C0F7FFE7C0F8FF0001E307000E80
:06085000E45BBFD71200BB
:0A085600000EF36E00EE00F0060E37
:1008600001D81200EA6002D0EE6AFCD7F350E960CA
:060870001200EE6AFCD745
:0A08760015EE00F025EE00F0F86A20
:10088000019CDCEC03F003EC00F007EC00F0FBD77C
:02089000120054
:0E089200000000000000000000524F57203A06
:1008A000202000434F4C554D4E203A20200000019F
:1008B000020057524F4E4720504F534954494F4E14
:1008C00000504C41594552203100504C415945523D
:1008D000203200504C4159455220312057494E5347
:1008E00000504C4159455220322057494E53000088
:020000040030CA
:010003000EEE
:00000001FF
