:020000040000FA
:0600000074EF04F0120091
:020006001200E6
:0800080081EF03F01200D9CFD3
:10001000E6FFE1CFD9FFE652DF6A956AF80E946EEB
:100020001CD8030EDF5C07E251D8DFCFE6FF74D89F
:10003000E552DF2AF6D783D8C9D8F28EF288F08647
:10004000F088F292F090F092F19CF19AF198FFD73B
:10005000E552E552E7CFD9FF1200380E8C6E18D862
:1000600009D8010E8C6E14D805D80C0E8C6E10D8E1
:100070003AEF00F0010ED56E0B0ED76EBC0ED66EA9
:100080005FEF00F0480ED56EFD0ED66E5FEF00F00C
:10009000829082928284F6DF829412008280829221
:1000A0008284F0DF8294120082908282958E829404
:1000B000E9DF828483BEFBD78294959E1200F2947E
:1000C000D58EF2A4FED7F294D59E1200010EE66EF4
:1000D0000ED8E5527C0E8C6EE1DFE6DF010EE66E97
:1000E00006D8E5527C0E8C6ED9DF54EF00F0D9CFE4
:1000F000E6FFE1CFD9FFE652DF6AFE0EDB50DF5CA0
:1001000006E2140E8C6EC4DFCFDFDF2AF6D7E5528D
:10011000E552E7CFD9FF1200D9CFE6FFE1CFD9FFF3
:10012000FE0EDB50010A05E0010A01E004D00CD804
:1001300002D00FD800D0E552E7CFD9FF1200800ED1
:100140008C6EA6DF54EF00F0C00E8C6EA1DF54EF72
:1001500000F0900E8C6E9CDF54EF00F0D00E8C6E91
:1001600097DF54EF00F011D8890EE66E000EE66EB0
:1001700012D9E552E552120008D8910EE66E000E33
:10018000E66E09D9E552E5521200D9CFE6FFE1CF7C
:10019000D9FFE652DF6AE2DF100EDF5C06E2200ED6
:1001A0008C6E7CDF81DFDF2AF7D7D8DFE552E5529E
:1001B000E7CFD9FF1200100E8C6E6ADF75DF300EAC
:1001C000000182258C6E6ADF54EF00F0D9CFE6FF84
:1001D000E1CFD9FF020EE126DF6A010EDB6A030ED2
:1001E000DF5C23E2010EDB6A030EF36E010EDBCF50
:1001F000F4FFF350F45C17E2DF50030DF3CF02F08D
:10020000F4CF03F0E80E0226000E0322010EDB50AD
:100210000F010224E96E000E0320EA6E450EEF6E18
:10022000010EDB2AE1D7DF2ADAD7020EE15C02E217
:10023000E16AE552E16EE552E7CFD9FF1200000115
:10024000872B8451030DF3CF02F0F4CF03F0E80EB7
:100250000226000E032285510F010224E96E000ED2
:100260000320EA6EEF5045086AE100018451020A5A
:1002700009E0030A05E0010A01E006D060DF04D0CE
:1002800063DF02D066DF00D000018551020A0EE074
:10029000030A07E0010A01E00ED0E66A28DFE55212
:1002A0000AD0020EE66E23DFE55205D0040EE66E9C
:1002B0001EDFE55200D00001DD511CE1580E8C6EAE
:1002C000EDDEF2DE00018451030DF3CF02F0F4CF36
:1002D00003F0E80E0226000E032285510F010224CE
:1002E000E96E000E0320EA6E580EEF6E0001010E5B
:1002F000DD6F1AD04F0E8C6ED1DED6DE0001845138
:10030000030DF3CF02F0F4CF03F0E80E0226000E47
:10031000032285510F010224E96E000E0320EA6ECC
:100320004F0EEF6E0001DD6B865103E1010E866F0B
:1003300001D0866B040E875D01E358D80CD025DF11
:10034000A00EE66E000EE66E26D8E552E55292DE6D
:1003500091DE90DE1ADF0001826B806B836B846B11
:10036000856B816B9FEF00F0D9CFE6FFE1CFD9FF1E
:10037000E6DE060EE66EBBDEE552FD0EDBCFE6FFE7
:10038000FE0EDBCFE6FF07D8E552E552D8DEE55298
:10039000E7CFD9FF1200D9CFE6FFE1CFD9FFE65270
:1003A000DF6ADF50E76EFD0EDBCFE9FFFE0EDBCF2D
:1003B000EAFFE750E926000EEA22EF5012E0DF5094
:1003C000E76EFD0EDBCFE9FFFE0EDBCFEAFFE75065
:1003D000E926000EEA22EF508C6E60DE65DEDF2A31
:1003E000E0D7E552E552E7CFD9FF1200D9CFE6FFBB
:1003F000E1CFD9FF050EE126580E0001E85D10E1BE
:10040000580EE95D0DE1580EEA5D0AE1BEDEC10E4F
:10041000E66E000EE66EBFDFE552E55242D937D1F7
:10042000580EEB5D10E1580EEC5D0DE1580EED5DE0
:100430000AE1ABDEC10EE66E000EE66EACDFE55201
:10044000E5522FD924D1580EEE5D10E1580EEF5D24
:100450000DE1580EF05D0AE198DEC10EE66E000E69
:10046000E66E99DFE552E5521CD911D1580EE85DD0
:1004700010E1580EEB5D0DE1580EEE5D0AE185DEF0
:10048000C10EE66E000EE66E86DFE552E55209D932
:10049000FED0580EE95D10E1580EEC5D0DE1580EEE
:1004A000EF5D0AE172DEC10EE66E000EE66E73DFEE
:1004B000E552E552F6D8EBD0580EEA5D10E1580E41
:1004C000ED5D0DE1580EF05D0AE15FDEC10EE66EF6
:1004D000000EE66E60DFE552E552E3D8D8D0580E44
:1004E000E85D10E1580EEC5D0DE1580EF05D0AE19B
:1004F0004CDEC10EE66E000EE66E4DDFE552E552B3
:10050000D0D8C5D0580EEA5D0FE1580EEC5D0CE175
:10051000580EEE5D09E139DEC10EE66E000EE66EA4
:100520003ADFE552E552B3D04F0EE85D10E14F0ED1
:10053000E95D0DE14F0EEA5D0AE127DECF0EE66EC2
:10054000000EE66E28DFE552E552ABD8A0D04F0E84
:10055000EB5D10E14F0EEC5D0DE14F0EED5D0AE13C
:1005600014DECF0EE66E000EE66E15DFE552E552A4
:1005700098D88DD04F0EEE5D10E14F0EEF5D0DE17E
:100580004F0EF05D0AE101DECF0EE66E000EE66E64
:1005900002DFE552E55285D87AD04F0EE85D10E1D2
:1005A0004F0EEB5D0DE14F0EEE5D0AE1EEDDCF0E7D
:1005B000E66E000EE66EEFDEE552E55272D867D0C9
:1005C0004F0EE95D10E14F0EEC5D0DE14F0EEF5D5A
:1005D0000AE1DBDDCF0EE66E000EE66EDCDEE552F4
:1005E000E5525FD854D04F0EEA5D10E14F0EED5D3D
:1005F0000DE14F0EF05D0AE1C8DDCF0EE66E000E94
:10060000E66EC9DEE552E5524CD841D04F0EE85DAA
:1006100010E14F0EEC5D0DE14F0EF05D0AE1B5DD2E
:10062000CF0EE66E000EE66EB6DEE552E55239D824
:100630002ED04F0EEA5D10E14F0EEC5D0DE14F0E36
:10064000EE5D0AE1A2DDCF0EE66E000EE66EA3DEE1
:10065000E552E55226D81BD00001882B060E885D96
:1006600016E1D9CFE9FFDACFEAFF440EEE6E520E63
:10067000EE6E410EEE6E570EEE6EEE6A86DDD9CF4F
:10068000E6FFDACFE6FF87DEE552E5520AD8050E2F
:10069000E15C02E2E16AE552E16EE552E7CFD9FFA3
:1006A0001200D9CFE6FFE1CFD9FFE652DF6A0001A1
:1006B000826B806B836B846B856B816B886B876BC4
:1006C000866BD8DCD7DCD6DCD5DC010E8C6EE0DCAA
:1006D000D1DC030EDF5C07E2F9DCDFCFE6FF1CDDD7
:1006E000E552DF2AF6D772DD2ADDE552E552E7CF83
:0406F000D9FF12001C
:0C06F400010004090000800000005E000E
:020700000000F7
:0E070200DACFE4FFE2CFDAFFE9CFE4FFEACF7F
:10071000E4FFF6CFE4FFF7CFE4FFF5CFE4FFF3CF3C
:10072000E4FFF4CFE4FFFACFE4FF00EE00F0020EA6
:10073000E80403E3EECFE4FFFBD700EE02F0020E85
:10074000E80403E3EECFE4FFFBD7E652F0A021D0AC
:10075000F0900001865109E1AF0EE66E000EE66EE4
:10076000B4EC01F0E552E55208D0B80EE66E000E8A
:10077000E66EB4EC01F0E552E5520001805105E16E
:10078000010E806FB3EC00F003D0806BBCEC00F086
:1007900028D0F2A213D0F29200018151812BEA6A93
:1007A0009C0FE96E000EEA22EFCF82F0DBEC00F046
:1007B000030E0001815D01E1816B13D0F0A211D025
:1007C000F0920001835107E1010E836F82C084F033
:1007D000826B816B06D082C085F0826B816B1FECCF
:1007E00001F0E55200EE03F0020EE80403E3E5CF6A
:1007F000EDFFFBD700EE01F0020EE80403E3E5CFC6
:10080000EDFFFBD7E5CFFAFFE5CFF4FFE5CFF3FF30
:10081000E5CFF5FFE5CFF7FFE5CFF6FFE5CFEAFF40
:0A082000E5CFE9FFE5CFDAFF110094
:06082A00F40EF66E060E4E
:10083000F76E000EF86E00010900F550E36F090035
:10084000F550E46F03E1E36701D03DD00900F550B6
:10085000DE6F0900F550DF6F0900F550E06F090009
:100860000900F550E96E0900F550EA6E090009002B
:100870000900F550E16F0900F550E26F0900090029
:10088000F6CFE5F0F7CFE6F0F8CFE7F0DEC0F6FF01
:10089000DFC0F7FFE0C0F8FF0001E15302E1E253DF
:1008A00007E00900F550EE6EE107F8E2E207F9D73C
:1008B000E5C0F6FFE6C0F7FFE7C0F8FF0001E30779
:0808C000000EE45BBFD712003B
:0808C800000EF36E00EE00F0DB
:1008D000060E01D81200EA6002D0EE6AFCD7F3508F
:0808E000E9601200EE6AFCD78A
:0808E80015EE00F025EE00F012
:1008F000F86A019C15EC04F003EC00F007EC00F042
:04090000FBD712000F
:0C090400000000000000000000524F57EF
:10091000203A202000434F4C554D4E203A202000D5
:100920000001020057524F4E4720504F534954493F
:100930004F4E00504C41594552203100504C4159C6
:100940004552203200504C415945522031205749E0
:100950004E5300504C4159455220322057494E5376
:02096000000095
:020000040030CA
:010003000EEE
:00000001FF
